:100000000C9461020C947E020C94D11D0C947E021F
:100010000C947E020C947E020C947E020C947E0260
:100020000C947E020C947E020C9403230C94D52332
:100030000C94501C0C947E020C947E020C947E0254
:100040000C947E020C947E020C947E020C947E0230
:100050000C947E020C94F51C0C947E020C947E028F
:100060000C947E020C947E020C947E020C947E0210
:100070000C947E020C947E020C947E020C947E0200
:100080000C947E020C947E020C947E020C947E02F0
:100090000C947E020C947E020C947E020C947E02E0
:1000A0000C947E020C947E020C947E02FC04FC04F0
:1000B000280528058905A70593069306AC052206A1
:1000C000330633063E1534154115941599159915C7
:1000D000941599159915621599156C15761599153C
:1000E00099159915991594159915991594159915AA
:1000F0004F15991599158615861586158615861539
:100100008615861586158615961599153E15311591
:10011000991599159915991599159915991599156F
:10012000991599159615991599159415991584157C
:1001300084158415841584158415841584158415F7
:1001400096158116F3168916531657168D165A16DC
:1001500090169B166516E91669169F166D16A3165E
:10016000CD167116A716D7167716AD16B7165E16EA
:100170009416611697167C16B216C316E316E5168A
:100180004F168516FC16331A391A271A2D1A3F1ADC
:10019000451A4B1A3D2464245C2564245C25B02454
:1001A000D3245C252A25392529001E001F002000A4
:1001B000210022000000350014001A00080015007C
:1001C000170039002B0004001600070009000A0080
:1001D000E200E1001D001B0006001900050062524C
:1001E000E000000021522F0030002C00E3004C0002
:1001F00027002600250024002300490034001300B6
:1002000012000C0018001C004D00280033000F00E5
:100210000E000D000B004A00380052003700360077
:100220001000110031002A002C002D002E0050007B
:1002300051004F0001000100010001000100010018
:1002400001000100010001000100010001000100A6
:100250000100010001000100010001000100010096
:100260000100010001000100010001000100010086
:100270000100010001000100010001000100010076
:100280000100010001000100010001000100010066
:100290000100010001000100010001000100010056
:1002A0000100010001000100010001000100010046
:1002B0000100010001000100010001000100010036
:1002C0000100010001000100010001000100010026
:1002D0000100010001000100010001000100010016
:1002E0000100010001000100010001000100010006
:1002F00001000100010001000100010001000100F6
:1003000001000100010001000100010001000100E5
:1003100001000100010001000100010001000100D5
:1003200001000100010001000100010001000100C5
:1003300001000100010001000100010001000100B5
:100340000100010001000100010001000C03700028
:10035000740065007200610000001A036C006900FF
:100360006700680074006E0069006E006700750029
:100370006E00640000000403090409023B0002014E
:1003800000A0FA0904000001030101000921110184
:10039000000122440007058103080001090401004F
:1003A000010300000009211101000122B600070528
:1003B00082032000011201000200000008EDFE3659
:1003C0006500010102000105010902A10185020980
:1003D00001A10005091901290815002501950875D5
:1003E0000181020501093009311581257F950275CA
:1003F00008810609381581257F9501750881060554
:100400000C0A38021581257F950175088106C0C048
:1004100005010980A101850319012AB700150126EC
:10042000B700950175108100C0050C0901A1018577
:100430000419012AA002150126A002950175108158
:1004400000C005010906A1018506050719E029E795
:10045000150025019508750181020507190029EF8E
:100460001500250195F0750181020508190129057E
:10047000950575019102950175039101C00501096A
:1004800006A101050719E029E71500250195087562
:100490000181029501750881010507190029FF15E1
:1004A0000026FF0095067508810005081901290539
:1004B00015002501950575019102950175039101BE
:1004C000C00011241FBECFEFDAE0DEBFCDBF11E0C8
:1004D000A0E0B1E0E6EDFCE402C005900D92A03B87
:1004E000B107D9F723E0A0EBB1E001C01D92A43021
:1004F000B207E1F70E9468140C9469260C9400007E
:100500008330B0F46A30A0F4473090F496E4899FC9
:10051000F001112487E0689FE00DF11D1124E40F24
:10052000F11DEE0FFF1FE855FE4F85919491089540
:1005300081E090E008950E948002089581E008958E
:1005400081E008950E94A00208950E94A2020895E9
:100550000E94A002089508950E94AB020895A6E0AB
:10056000B0E0E5EBF2E00C94C52549835A839E8305
:100570003091B70189819A81311115C03E813323B1
:1005800059F0222349F00E945108182F682F8981C1
:100590009A810E942D0803C00E943F08182F69818C
:1005A0007A81812F04C00E94510869817A810E945A
:1005B0007D0F2696E3E00C94E125FC01262F408177
:1005C000518162817381848195810E94AF02089577
:1005D000CF93DF93EC0161E00E94DD02BE010E9437
:1005E000A502DF91CF910895CF93DF93EC0160E0F6
:1005F0000E94DD02BE010E94AC02DF91CF910895FE
:1006000081E008950E9400030895CF93C82F0E94AF
:1006100004078C2F0E9402032FEF84E39CE02150FB
:1006200080409040E1F700C00000CF91089581E044
:100630000E9405030E941B1D089580E00E9405038F
:100640000E942C1D08950F931F93CF93DF938C016D
:1006500061E00E94DD02EC01B8010E94A80288233B
:1006600009F442C0B801CE010E941B1A8823E1F1AF
:10067000B801CE010E942B168823B1F1B801CE013A
:100680000E940116882381F1F8018581882341F1B8
:10069000C3308CE7D807D1F040F4C115FCE7DF0781
:1006A00091F0C130DC47A1F01BC0CB35ECE7DE0791
:1006B000A9F0CC35FCE7DF0771F0CA35DC4781F4DF
:1006C0000E94B50C0DC00E9417030EC00E94BD0C05
:1006D0000E941D0309C00E94AB0C02C00E94B90C0D
:1006E000C8010E949E0201C080E0DF91CF911F915E
:1006F0000F9108950E94291C0E94A10308950E9451
:10070000A5030E94321C0895089581E0089508957C
:10071000CF93DF93D82F0E948503C82F882319F029
:100720008D2F0E9487038C2FDF91CF91089508951C
:10073000CF93C82F0E9484038C2F0E948803CF91EF
:10074000089580E00E94980308950E94631A0E9411
:1007500098030895CF930E94631AC82F8091B20125
:10076000C81779F0C093B2010E94BE1C6093B30118
:100770007093B4018093B5019093B6018C2F0E94C1
:100780009803CF910895ADE0B0E0E9ECF3E00C946C
:10079000C625488759876A877B878C879D879111F3
:1007A0000E94B70BCE01019627E0FC0111922A9519
:1007B000E9F726E0FE013896DC0101900D922A95BA
:1007C000E1F72D8121110AC029813A814B815C8199
:1007D0006D817E818F810E94010B04C00E94E8021E
:1007E0008111F2CF2D96E2E00C94E225FC012481E8
:1007F000213021F4808191810E948308089566232D
:1008000019F00E949B1702C00E940C180E948318C6
:100810000895CF93882309F449C0C82F8CEF8C0F1B
:10082000813A98F48C2F0E94A01581113FC08C2F23
:100830000E94061B882329F08C2F0E94A61B0E9471
:100840003E0C8C2F0E948F1B0CC080E28C0F8830D6
:1008500058F4C77081E001C0880FCA95EAF70E947A
:100860009A0B0E943E0C22C0EBE5EC0FE33040F403
:10087000F0E0EA59FE4F808190E00E949E1A16C077
:10088000E8E5EC0FEB3150F4F0E0EE0FFF1FE05D18
:10089000FE4F808191810E94C31A08C083E38C0FB0
:1008A000833120F461E08C2F0E94FF03CF910895E3
:1008B000882381F19CEF980F913A18F40E94A61BAF
:1008C0000DC090E2980F983060F4877091E001C0FD
:1008D000990F8A95EAF7892F0E94A00B0E943E0C7F
:1008E00008959BE5980F933028F480E090E00E94F3
:1008F0009E1A089598E5980F9B3128F480E090E0C7
:100900000E94C31A089593E3980F933118F460E09E
:100910000E94FF0308951F93CF93DF93182FEB01DD
:100920000E940904209741F08FE99FE00197F1F7B9
:1009300000C000002197F6CF812F0E945804DF915C
:10094000CF911F910895893319F060E070E002C0E3
:1009500060E570E00E948B040895882321F00E94D6
:100960009A0B0E943E0C0895882321F00E94A00B50
:100970000E943E0C0895A0E0B0E0E1ECF4E00C949D
:10098000C0257C01162FC72FFC01D5810681029559
:100990000F700E94900B8823F9F0DD23E9F08C2F73
:1009A000807F803461F080E2810F8830A8F08C2F46
:1009B000807E803221F4123078F0002369F080913B
:1009C000D80282FF09C082E00E947F0C0E94900B37
:1009D00091E0D82ED92601C0D12CCC2EC2948FE024
:1009E000C8228C2D90E08C30910508F09CC1FC0150
:1009F000EA5AFF4F0C94B0258C2F807FCF7088234C
:100A000011F0C295C07FDD2399F0CC2309F477C1A2
:100A100080E2810F883010F0111104C08C2F0E94E9
:100A20009A0B03C08C2F0E94AA0B0E943E0C67C138
:100A3000812F0E945804CC2309F475C180E2810FF4
:100A4000883038F1112329F18C2F0E94B00B24C07B
:100A50008C2F807FCF70803211F0C295C07F112320
:100A600019F0113099F13CC08091D80282FD17C075
:100A7000DD2349F0CC2329F08C2F0E949A0B0E9491
:100A80003E0C80E03DC180E00E945804CC2309F474
:100A90004AC18C2F0E94A00B0E943E0C44C1DD2352
:100AA00049F0002309F1013009F03DC18C2F0E946B
:100AB000C10B39C1011137C18C2F0E94B4048C2F96
:100AC0000E94CD0B8C2F0E94520C2DC1DD2321F0F2
:100AD000063008F028C108C0053008F024C115C050
:100AE000DD2331F001110BC18C2F0E94AD041BC11D
:100AF000002359F0193309F013C1FFEF27EE83E00B
:100B0000F15020408040E1F709C18C2F0E94B404CD
:100B10000AC18C2F86958695837019F0813061F01B
:100B200002C1DD2321F0812F9C2F937002C080E051
:100B300090E00E949E1AFFC0DD2321F0812F9C2FA0
:100B4000937002C080E090E00E94C31AF4C06D2F41
:100B5000812F0E94FF03EFC08C2F8370B1F5D1115C
:100B6000E6C0412F429546954770440F440F812FB0
:100B70008F7090E09C01042E02C0220F331F0A9454
:100B8000E2F714FF0AC08FE090E002C0880F991FBF
:100B90004A95E2F78095909502C080E090E0C69576
:100BA000C695C370822B932BC23049F058F4C130E4
:100BB00019F00E946007BBC00E945707B8C00E948E
:100BC0006907B5C00E945407B2C0DD2319F08C2F0D
:100BD000817001C08695882309F4A9C0412F4295F0
:100BE00046954770440F440F812F8F7090E09C0111
:100BF000042E02C0220F331F0A94E2F714FF0AC02A
:100C00008FE090E002C0880F991F4A95E2F7809527
:100C1000909502C080E090E0C695C695C370822B87
:100C2000932BC23049F058F4C13019F00E94C80724
:100C30007EC00E94BF077BC00E94D10778C00E947F
:100C4000750775C0CF70DD2339F08C2F0E948D079A
:100C5000812F0E94AD046BC0812F0E94B4048C2FA1
:100C60000E949D0764C0123F21F128F4103F41F01B
:100C7000113FC1F040C0133F19F1143F79F03BC060
:100C8000DD2341F0053008F04EC08C2F8F710E949B
:100C9000AF0749C0063008F046C0F7CF8091D802B0
:100CA00082FD18C0DD2339F08C2F8F710E948D07D3
:100CB0003AC0DD23C9F38C2F8F710E949D0733C08A
:100CC000DD2329F08C2F8F710E9481072CC00E9498
:100CD0007C0729C0DD2331F063E08C2F8F710E94E7
:100CE000610C21C081E00E947F0C0230E0F082E0C4
:100CF0000E947F0C18C0DD2331F00023A9F2812F60
:100D00000E94090410C00023B1F2193349F49FEF87
:100D1000E7EEF3E09150E040F040E1F700C0000062
:100D2000812F0E94580488EF8C0D843020F40E949B
:100D3000631A0E949803DD2089F00E948C0B80FDCD
:100D40000DC0F70115820E94860B0E948D07C70116
:100D50000E94CB060E94860B0E949D07CDB7DEB78E
:100D6000E8E00C94DC250F931F93CF93DF93EC0105
:100D7000688179818D810E948E088C010E94DA073A
:100D80000E944507B801CE010E94BB04DF91CF91BC
:100D90001F910F910895CF93DF93FC0124812223AB
:100DA000D1F0EC010E94230381110FC00E94900B2F
:100DB000882389F08D81882371F08091D80282FF89
:100DC0000AC082E00E947F0C06C0CE010E94B306DA
:100DD000CE010E94F402DF91CF91089580E090E06F
:100DE0000E949E1A80E090E00E94C31A0E94B70BF6
:100DF0000E943E0C0E94A2180E94831808950E942F
:100E0000BD1B0E94EE0608950E94A70B0E94FF06DC
:100E1000089592959F70963079F010F4925001C029
:100E20009A50923068F4803F69F018F4883E40F49C
:100E300009C0843F29F406C0883E20F0813F11F0AC
:100E400080E0089581E00895FC012481222339F097
:100E5000808191810E9483080E940907089580E0A3
:100E60000895A6E0B0E0E7E3F7E00C94C6252696E7
:100E7000E2E00C94E225A7E0B0E0E1E4F7E00C94B6
:100E8000C6252796E2E00C94E225089508950E9475
:100E9000460708950E94470708950E944A079093C5
:100EA000DF018093DE0108950E944D07089520918F
:100EB000DE013091DF01822B932B0E944D070895B4
:100EC0002091DE013091DF01822393230E944D07A0
:100ED00008952091DE013091DF01822793270E943F
:100EE0004D0708950E94460708950E947207909347
:100EF000DD018093DC01089580E090E00E94750799
:100F0000089521E030E0A90102C0440F551F8A95E1
:100F1000E2F7CA010E947507089521E030E002C09F
:100F2000220F331F8A95E2F78091DC019091DD0159
:100F3000822B932B0E947507089521E030E002C0B8
:100F4000220F331F8A95E2F7209530958091DC01BE
:100F50009091DD01822393230E947507089521E07B
:100F600030E002C0220F331F8A95E2F78091DC0146
:100F70009091DD01822793270E94750708952091A3
:100F8000DC013091DD01822B932B0E9475070895BF
:100F90002091DC013091DD01822393230E947507AB
:100FA00008952091DC013091DD01822793270E9472
:100FB000750708950895962F9770A1E001C0AA0FB4
:100FC0009A95EAF793E0769567959A95E1F7660F1B
:100FD000771F660F771FFA01E60FF71F40E050E01A
:100FE000682F70E090819B01042E02C036952795F2
:100FF0000A94E2F72170219529272A232927219392
:101000004F5F5F4F4430510569F70895FB01782F1A
:10101000777023E0969587952A95E1F7880F991FB9
:10102000880F991FE80FF91F40E050E080E0219100
:1010300030E0072E02C0369527950A94E2F721701A
:101040003327042E01C0220F0A94EAF7822B4F5F48
:101050005F4F4430510559F70895282F9A3070F4A6
:10106000873060F4862F622F70E027E0929F600D3A
:10107000711D112448EB51E00E94DB0708959A305E
:1010800070F4873060F4292F90E068EB71E037E06E
:10109000239F800D911D11240E940608089580E071
:1010A0000895A0E0B0E0E7E5F8E00C94BF257C01EE
:1010B0000091DC011091DD018091DE019091DF0152
:1010C000082B192BCFE0D0E0CC24C394D12CC6013F
:1010D0000C2E02C0880F991F0A94E2F780239123F7
:1010E000892B21F4219798F7B12C07C0BC2EB701AA
:1010F0008C2F0E94890F0197A9F38B2DCDB7DEB7F6
:10110000E9E00C94DB25CF93DF93EC010E945108BA
:10111000BE010E94890FDF91CF9108951F93CF9355
:10112000DF93EB019091B701992321F0CB010E944D
:10113000830813C0882349F0CB010E945108182F5F
:10114000682FCE010E942D0804C0CB010E943F08E9
:10115000182FBE01812F0E94890FDF91CF911F911F
:1011600008951F93CF93DF93C091E00117E0809122
:10117000E101C817A1F0D0E01C9FF0011D9FF00D08
:101180001124EE51FE4F20813181428153816481CF
:10119000758186810E943B072196C770E8CFDF9159
:1011A000CF911F91089520911A0230911B02409116
:1011B0001C0250911D0260911E0270911F028091CD
:1011C00020020E943B070895CF93DF938091200275
:1011D00082958F7009F04EC080911F02882309F418
:1011E00049C08091E0014091E10150911B02609162
:1011F0001A02C0911C02D0911D0277E08417D1F130
:1012000090E0789FF001799FF00D1124DF01AE513D
:10121000BE4F14962C911497222349F111962C91CC
:101220001197251324C02C91261321C015962C91BB
:10123000159721111CC012962D913C9113972C1BD0
:101240003D0B283C310598F4809120028F7080611D
:1012500080932002E851FE4F80818F7080618083EF
:101260008AE192E00E94CB060E94B10803C0019679
:101270008770C4CFDF91CF9108952091E0019091C4
:10128000E10157E02917A9F030E0529FF001539F88
:10129000F00D1124EE51FE4F7181761306C070815E
:1012A000781303C07581741306C02F5F3F4F2770FA
:1012B000E9CF80E0089581E00895A4E1B0E0E3E69D
:1012C000F9E00C94BC258C0186E0F801DE011F9644
:1012D00001900D928A95E1F7F8018481E5809AE109
:1012E000A92E92E0B92E90911E02911118C0882368
:1012F00009F480C1EE20D9F1C8010E942407F82E1C
:101300008823A9F187E0F801D50101900D928A9513
:10131000E1F7C5010E94F6030E94E40898C0F801B5
:10132000C080D18082809380F0901F0220911C02A7
:1013300030911D02A401421B530BFF2009F406C18A
:10134000483C510508F0AFC0882309F455C180918D
:101350002002282F207F90911B02222361F09D15EF
:1013600009F462C0C8010E942407811173C0C8013A
:101370000E94CB063FC19D1115C090911A029C118D
:1013800011C0E1100FC08F708061809320020E9415
:10139000D3088AE192E00E94CB0680912002F801F6
:1013A000868326C1E1103AC040E06D2D8C2D0E944D
:1013B0003D0940E06D2D8C2D0E943D09E82E8111E4
:1013C00017C1CF86D88A8F8598890E948308292FD4
:1013D00022952F70243020F49F70223028F009C00D
:1013E0002A50223080F014C0992349F0811107C09F
:1013F00013C0992321F0F8019681907F69F0805EF7
:10140000883030F409C0803F38F0815F833020F0AD
:10141000C8010E94CB06EF2CFE2CEEC0809120026A
:10142000816080932002E4C090911A029C119ACFAF
:10143000E11098CFF8018683C8010E94CB0687E0AF
:10144000F801AAE1B2E001900D928A95E1F70E94BD
:10145000D308D2C0EE2009F48ACF20912002822F37
:1014600082958F7090E002978CF080911A02909193
:101470001B02998788879B868A8680911E028C87AB
:101480001D862E87CE0108960E94CB0687E0F801C4
:10149000AAE1B2E001900D928A95E1F70E94E4087A
:1014A0000E94D308A7C090912002292F207FA1F489
:1014B000682D9A8A898AA6017A899E2D0E94310711
:1014C0008AE192E00E94CB0687E0F50111928A95AD
:1014D000E9F70E94D3088CC0882309F48DC080915D
:1014E0001B028D1111C080911A028C110DC0E110E8
:1014F0000BC0F8019683C8010E94CB0687E0F50176
:1015000011928A95E9F778C0C8010E9424078823C0
:1015100009F42DCFEE2009F42ACF20912002822F4A
:1015200082958F7090E002970CF4B0CF80911A02F0
:1015300090911B029A8389839C828B8280911E02E8
:101540008D831E822F83CE0101969ECF483C51058C
:1015500008F040C0882309F44DC0FE2CEE2009F4A9
:1015600006CF80911B028D1127C080911A028C1129
:1015700023C09091200290FD16C0892F82958F7014
:10158000282F30E02115310571F0F80196832F30B6
:10159000310509F451CF8F5F982F9295907F868106
:1015A0008F70892B48CF87E0F801AAE1B2E0019063
:1015B0000D928A95E1F720C0C8010E94240781118D
:1015C00065CF80912002816080932002C8010E9433
:1015D000CB0612C0682D9A8A898AA6017A899E2D27
:1015E0000E94310787E0F50111928A95E9F72FCF24
:1015F000F12C02C0FF24F3948F2D6496ECE00C9440
:10160000D825AEE0B0E0E7E0FBE00C94C5252887E4
:1016100039874A875B876C877D878E87CE010896DE
:101620000E945D09882361F06C856623A9F12885F5
:1016300039854A855B857D858E850E943B072CC058
:1016400087E0FE013896DE01119601900D928A9591
:10165000E1F76C85662301F12091E10130E0C901D9
:101660000196877099274091E00150E08417950713
:10167000E1F16D8397E0929FD001939FB00D11240B
:10168000AE51BE4FFE01319601900D929A95E1F751
:101690008093E1010E94B10817E08091E0019091F0
:1016A000E101891779F1189FC00111248E519E4FD5
:1016B0000E945D09882331F1E091E0011E9FF00155
:1016C0001124EE51FE4F208131814281538164818A
:1016D000758186810E943B078091E00190E0019630
:1016E000877099278093E001D8CF0E940407109259
:1016F000E1011092E001EAE1F2E087E0DF011D92F2
:101700008A95E9F72E96E3E00C94E1258091490251
:1017100086958695869508958091490287700895EB
:1017200090914902977081E009F480E008958091DA
:101730007502089590917502892B80937502089522
:101740008095909175028923809375020895109277
:101750007502089590917402892B80937402089504
:101760008095909174028923809374020895109259
:101770007402089508950E94BA0B08950E94BB0B4D
:10178000089590914B02292F2823821729F0982B36
:1017900090934B020E94BE0B089590914B02292F0B
:1017A000282331F08095892380934B020E94BE0B41
:1017B000089580914B02882329F010924B0280E01B
:1017C0000E94BE0B0895CF93C09175028091740260
:1017D000C82B80914B02882331F0C82B0E94E81A55
:1017E00081110E94D90B8C2FCF910895CF93DF9355
:1017F000C0910201D09103010E94E30B8883C09144
:101800000201D091030148E050E061E472E0CE01B2
:101810000E940126892B59F088E0FE01A1E4B2E084
:1018200001900D928A95E1F7CE010E94771ADF911F
:10183000CF910895CF93DF93C0910001D091010122
:101840000E94E30B8983C0910001D091010140E225
:1018500050E061E272E0CE010E940126892B59F02E
:1018600080E2FE01A1E2B2E001900D928A95E1F7DB
:10187000CE010E94821ADF91CF91089580912F01AD
:10188000882339F08091D70287FF03C00E941A0C89
:1018900008950E94F60B08950E94BA0B08950E94C5
:1018A0004C0C089590914A02292F282331F08095FD
:1018B000892380934A020E944F0C08950E94BA0B1C
:1018C00008959091D80292FF11C098E0899F9001ED
:1018D0001124262B209349020E948D0780914902F2
:1018E0008695869586950E945E0C08950E948D07C8
:1018F00008951092490280E00E945E0C0895909134
:1019000049028095892380934902282F277069F422
:10191000981759F09091D80292FF07C08695869546
:1019200086950E949D070E94790C08959091D80297
:1019300092FB222720F9281769F080FB92F99093F7
:10194000D8028091D7029091D8020E94DE0C82E0EA
:101950000E947F0C08958091D80282FB882780F92D
:1019600091E089270E94960C089581E00E94960CD0
:10197000089580E00E94960C08956FEF7FEF80E05D
:1019800090E00E945326089580E090E00E941F2678
:1019900021E0853E9E4F09F020E0822F089582E0ED
:1019A00090E00E941726089583E090E00E94172699
:1019B000089584E090E00E941F260895BC0184E011
:1019C00090E00E9453260895AB01BC018FE090E0A7
:1019D0000E9447260895AB01BC0183E190E00E947C
:1019E0004726089560E070E0CB010E94EB0C08955B
:1019F00060E070E0CB010E94E40C0E94F20C0895BC
:101A0000A8E0B0E0E6E0FDE00C94C62565EE7EEFD0
:101A100080E090E00E94532660E082E090E00E9427
:101A2000352681E090E09093DF018093DE0161E054
:101A300083E090E00E94352660E074E184E090E06D
:101A40000E94532660E086E090E00E94352660E028
:101A500087E090E00E94352640E050E0BA0188E03F
:101A600090E00E94472660E083E290E00E943526E5
:101A700060E08CE090E00E94352660E08DE090E030
:101A80000E94352619821A821B821C821D821E82A8
:101A90001F82188648E050E067E170E0CE010196B1
:101AA0000E94252640E050E0BA018FE190E00E94BC
:101AB00047260E94F80C2896E2E00C94E2250E944A
:101AC000000D0895682F8EE090E00E94352608955D
:101AD000A6E0B0E0EEE6FDE00C94C4250E94B21C46
:101AE0008C0180917602909177020817190781F096
:101AF00019821A820E94B21C682F49815A81792F5B
:101B000080E090E00E94C303109377020093760276
:101B10002696E4E00C94E0250E949F1060938602D4
:101B20007093870280938802909389026093820267
:101B3000709383028093840290938502089581E0DC
:101B400008950E947712089508950E94A40D0895A3
:101B50000E94A40D08950E94A80D08950E94A40D4E
:101B600008950E94AE0D08950E94A40D089589EB7A
:101B700090E10E947D140E94B40D0E94B10D089561
:101B80000E94A50D0E94A40D08950E94C40C81110D
:101B900002C00E945F0D0E94CF0C80938A020E94B7
:101BA000D90C9093D8028093D7020E94A0140E946F
:101BB000D40C90E00E9454078091DC019091DD01EB
:101BC0000E94720708950E94A91C0E9479100E9429
:101BD0007D120E94CB110E94C50D0E9497030E94A6
:101BE000E9150E948F120E94AB0D0895A6E0B0E0A7
:101BF000ECEFFDE00C94BD250E949F0D811103C008
:101C00000E94680D53C00E94F01188E7E82E82E020
:101C1000F82E670100E0F60111916F01802F0E94FC
:101C2000BB1081270F5F0A3019F08823A1F302C08F
:101C3000882331F380918A0281FD0E94C1100E94A5
:101C4000A10DA82E10E099249394812F0E94BB101F
:101C5000B82EF701C080C82609F100E0DD24D39436
:101C60008C2D8D21A9F0AA2099F009831A830E9456
:101C7000B21C9C838B839D8291E08B2D8D2109F476
:101C800090E049815A816B817C818D810E94C303E0
:101C90000F5FDD0C073021F7F701B0821F5FFFEF08
:101CA000EF1AFF0A1A3089F60E948C0D0E947712F3
:101CB0000E94C4180E94AA032696EBE00C94D92532
:101CC0001F93CF93DF930E948E0FEC01C11580E527
:101CD000D807E8F5C11590E4D90708F0A8C0C03EC0
:101CE000D10530F5CD3CD10508F094C0C83AD105F6
:101CF00078F4C53AD10508F083C0C130D10509F4A4
:101D00007CC008F4F2C0C430D10508F0F1C0EDC0C9
:101D1000C33CD10508F0E9C0C85AD0E0CC0FDD1FA4
:101D2000C759DE4F0990D881C02DCE019464E1C01F
:101D3000C11580E2D80708F0CBC0C11591E0D907E2
:101D400008F06BC0C83ED10508F4D2C0CEC0C03682
:101D500082E5D80728F5C03492E5D90708F079C0A4
:101D6000C03282E5D80708F06CC0C11592E5D907EA
:101D700008F481C04C2F4695469580E2489FA0010B
:101D80001124C37021E030E0C90102C0880F991FFF
:101D9000CA95E2F7EA01C82BD92BCE019D68A9C0EC
:101DA000C03A82E5D807B8F48C2F8F71C03892E51D
:101DB000D90708F07BC08695869590E2899F9001AF
:101DC0001124C37081E090E002C0880F991FCA956A
:101DD000E2F79A6868C0C03C82E5D80708F46DC095
:101DE000C03E92E5D90708F080C0CF71DD27DC2F17
:101DF000CC27CE01806F906A7CC081E090E079C0F2
:101E0000C55AD0E0C156DE4F8881C82FD0E0CE0140
:101E100090646FC0CE0190656CC08D2F0E942A1017
:101E2000182FCE0199270E948E0F1F715CC0CE0122
:101E300099270E948E0FCC27DF70D06A8C2B9D2BA8
:101E400058C0CF71D0E0DC2FCC27CE01816F906AD3
:101E500050C08C2F8F718695869590E2899F900156
:101E60001124C37081E090E002C0880F991FCA95C9
:101E7000E2F79C6818C08C2F8F710E942A1095E0A1
:101E8000D695C7959A95E1F7CF70D0E0DC2FCC2797
:101E9000282F30E084FF05C084E0220F331F8A958D
:101EA000E1F7D069CE01822B932B23C090E0D82F8D
:101EB000CC27CE01846F906A1CC08C2F8F710E943A
:101EC0002A108F7190E0D82FCC27CE01906211C0DC
:101ED0008D2F8F710E942A10182FCE0199270E94F2
:101EE0008E0F1F719062912B04C080E090E001C0C2
:101EF000CE01DF91CF911F9108957A3038F4673089
:101F000028F4462F672F0E949B02089580E090E0FE
:101F100008950E947D0F0E94600E089582389105F9
:101F200069F1B0F48133910509F475C048F4893240
:101F3000910509F467C08A32910509F471C00895CA
:101F40008533910509F459C089339105B9F0089595
:101F5000833E910589F138F4803E9105D1F0823EAF
:101F6000910529F10895863E9105C9F1873E9105B5
:101F7000D9F1843E910509F06CC027C02091D702A9
:101F800020FD57C021FD55C02091D80223FD5BC024
:101F900008958091D70280FD48C08091D80280FFCB
:101FA00048C08091D70284FD46C083EE51C0809125
:101FB000D70282FF3CC0F5CF8091D70282FD37C0A7
:101FC0008091D80280FD35C0ECCF8091D80281FF8E
:101FD00036C08091D70284FD2EC087EE39C0809133
:101FE000D70283FF2AC0F5CF8091D70283FD25C099
:101FF0008091D80281FD23C0ECCF8091D70285FD6E
:1020000022C01FC08091D70285FD1BC08091D802DD
:1020100083FF19C00AC08091D70286FD16C017C081
:102020008091D70286FD13C010C089E311C082EEF3
:102030000FC080EE0DC080E00BC086EE09C084EEBC
:1020400007C085E305C089E203C08AE201C081E3DD
:1020500090E008959091D70292FF10C041E0282FA0
:102060002471243009F040E031E0282F2871283015
:1020700009F030E0431711F02CE0822793FF10C0E5
:1020800041E0282F2471243109F040E031E0282F6D
:102090002871283109F030E0431711F02CE0822735
:1020A0003091D80230FF10C051E0282F217121302B
:1020B00009F050E041E0282F2871283009F040E075
:1020C000541711F029E0822731FF10C041E0282F7A
:1020D0002171213109F040E031E0282F28712831A9
:1020E00009F030E0431711F029E0822794FD877E44
:1020F00008951092D9021092DA021092DB02109227
:10210000DC020895CF92DF92EF92FF926B017C0187
:102110000E94771281110EC00E94BE1CC61AD70AF7
:10212000E80AF90AC092D902D092DA02E092DB0200
:10213000F092DC02FF90EF90DF90CF9008950F9324
:102140001F930E947712882319F00E94BE1C0EC0B4
:102150000E94BE1C0091D9021091DA022091DB028C
:102160003091DC02600F711F821F931F1F910F912E
:10217000089580E00895E82FF0E0E851FD4F808158
:102180000895089580EA8A95F1F7089500C00895AA
:102190000E94C210089508950E94CB1008950E94D5
:1021A000CC1008950E94CB1008950E94D21008957B
:1021B0000E94CB100895A5E0B0E0E1EEF0E10C94B0
:1021C000C3250E9477126091F2028823E9F185E02D
:1021D000F82E8E010F5F1F4FF8018F2D11928A95F7
:1021E000E9F7862F90E0B80188519D4F0E949D121B
:1021F000882389F08091DD0290E045E050E0B8014D
:1022000088519D4F0E94012621E020938B02892B4B
:1022100061F410E016C080918B028823D1F3F8019D
:102220001192FA94E9F710928B02A091DD02B0E0CE
:10223000A851BD4F85E0F80101900D928A95E1F714
:1022400011E00E94CF100DC070E068517D4F809169
:10225000DD0290E088519D4F0E9426130E94D81005
:1022600010E0812F2596E5E00C94DF25F894E82F07
:10227000E295EF70F0E031A1282F2F7081E090E01F
:1022800001C0880F2A95EAF7982F9095932391A380
:1022900092A1892B82A3789408950F931F93CF93D3
:1022A000DF93C9EAD1E089918F3F11F00E94361186
:1022B00081E0CE3AD807B9F7C2EAD1E009EA11E0E5
:1022C00089918F3F11F00E9436110C171D07C1F73D
:1022D000DF91CF911F910F910895A0E0B0E0E3E767
:1022E000F1E10C94C0258C01C62FD0E0CE018755BA
:1022F0009E4F7C01FC0190819F3F09F447C0D62E80
:10230000F894E92FE295EF70F0E081A19F7021E051
:1023100030E001C0220F9A95EAF7822B81A382A1B7
:102320002095282322A378940E94C610E2EAF1E0C7
:1023300049EA51E031E0C12C21912F3F89F0A22FD1
:10234000A295AF70B0E090968C9190E02F7002C093
:10235000959587952A95E2F780FD02C0832F01C0ED
:1023600080E0C82A330F4E175F0731F7F7018081ED
:102370008F3F11F00E94361161E0C11001C060E092
:102380008D2D0E94C810C00FD11FC882CDB7DEB7F7
:10239000E8E00C94DC258091040180910401811116
:1023A00002C095E001C090E09093F20285E0891BA5
:1023B0008093DD020E944D118AE0E8EEF2E0DF0139
:1023C000982F1D929A95E9F7EEEDF2E0DF011D924C
:1023D0008A95E9F785E00E942E120E94D510089593
:1023E000AAE0B0E0E6EFF1E10C94C3258E010F5FA7
:1023F0001F4F8AE0F80111928A95E9F7F12C6F2DB1
:10240000C8010E946D11F394F5E0FF12F8CF4AE085
:1024100050E0B8018EED92E00E94012621E0009785
:1024200009F420E0892B41F08AE0F801AEEDB2E03A
:1024300001900D928A95E1F76091F20270E0685187
:102440007D4F45E08EED92E00E942F12182F0E94E2
:10245000DB10812B2A96E5E00C94DF250895EF929E
:10246000FF920F931F93CF93DF937C018B01C42FB7
:10247000222351F081E080938E020E94B21C90933F
:102480008D0280938C0204C080918E02811102C063
:1024900080E01AC080918C0290918D020E94CA1C2B
:1024A0000597B0F3D0E0AE01B701C8010E94012644
:1024B000892B39F0AE01B701C8010E940E2681E0D8
:1024C00001C080E010928E02CDB7DEB7E6E00C943A
:1024D000DE25CF930E948F25C82F811102C00E9454
:1024E0008A258C2FCF910895809192020895809132
:1024F000910208950E94771208950E9469128093B4
:1025000091020E947A12809392020E947412809328
:1025100004010E94771281110E94D51208950E9431
:102520007712811102C00E94D812089581E0909123
:1025300093029A3008F080E008950F931F93CF9391
:10254000DF93EC018B01809193028A3038F4B8015B
:10255000CE010E94231381111DC00AC080918F02F9
:10256000909190020E94CA1C843F914080F715C050
:10257000809193028F3F19F08F5F80939302809137
:1025800093028A3060F00E94B21C90939002809374
:102590008F0203C01092930202C080E001C081E06C
:1025A000DF91CF911F910F9108950E948C1D089586
:1025B0000E948F1D0895A0E0B0E0E1EEF2E10C94DE
:1025C000C1257901C82F880FDD0B41155105A9F0F0
:1025D000FE0193E0EE0FFF1F9A95E1F7EB5FFE4FD0
:1025E000818192818C569D4F208130E042175307A4
:1025F00008F49A01A9010E940E26CE010E94771EBE
:10260000D82E8823D1F001151105B9F083E0CC0F45
:10261000DD1F8A95E1F7FE01EB5FFE4F438150E03D
:102620000417150708F4A801CB5FDE4F6C817D818C
:102630006C567D4FC7010E940E268D2DCDB7DEB79B
:10264000E7E00C94DD250E94181408950E942F14D1
:102650000895A4E0B0E0EFE2F3E10C94C4256091AA
:10266000AB027091AC028091AD029091AE020E94DB
:10267000D91C643671058105910528F10E949F10CF
:10268000DC01CB010296A11DB11D89839A83AB8326
:10269000BC8300E010E020E030E044E050E0BE0108
:1026A0006F5F7F4F82E00E94DB12182F882361F05A
:1026B0000E94BE1C6093AB027093AC028093AD028B
:1026C0009093AE0201C011E0812F2496E4E00C94B7
:1026D000E025A0E0B0E0EFE6F3E10C94BE257C013C
:1026E0005B016A010E949612811103C001E010E0B3
:1026F00002C00AE010E0C1E0D0E0B501C701F60178
:102700000995811115C021960C171D0794F0CC9FD7
:102710009001CD9F300D300D112480E090E045E315
:102720004A95F1F70000019682179307C1F7E5CFAC
:1027300081E0CDB7DEB7EAE00C94DA25A6E0B0E0A0
:10274000E4EAF3E10C94BE257B01C090AE01D09089
:10275000AF0101E010E09E012A5F3F4F40E050E0F2
:1027600060E070E080E00E94DB12182F882309F4FB
:102770003EC056018FEFA81AB80A6091A702709167
:10278000A8028091A9029091AA020E94D91C6436E5
:1027900071058105910518F105E010E09E012F5F9C
:1027A0003F4F40E050E060E070E081E00E94DB12CB
:1027B000182F65E070E0C5010E94EA1591E02E81B6
:1027C000281390E0192339F10E94BE1C6093A702E0
:1027D0007093A8028093A9029093AA0211C065E0A9
:1027E00070E0C5010E94EA159E818913D5CF85E06E
:1027F000F6013196DE01119601900D928A95E1F76E
:10280000112349F085E0FE013196A2EAB2E0019081
:102810000D928A95E1F785E0E2EAF2E0D7010190B6
:102820000D928A95E1F7812F2696EAE00C94DA253D
:102830000F931F93CF93DF93EC018B014EE953E18C
:102840000E946913882331F049E253E1B801CE01B7
:102850000E946913DF91CF911F910F9108950F93FB
:102860001F93CF93DF93C091AE01D091AF01CE0102
:10287000019625E0FB01DC0101900D922A95E1F71C
:1028800065E070E00E94EA1588836E817F8188850B
:10289000998500919E0210919F022091A002309193
:1028A000A102601771078207930751F060939E029F
:1028B00070939F028093A0029093A1020E948210C5
:1028C000DF91CF911F910F9108950E94F60D089509
:1028D0000E94491C0E943E200E94B70D0E94582071
:1028E0000E94E30D0E9465200E946A200E946514E8
:1028F0000E9484200E94C00DF7CF9093B101809375
:10290000B00108950E94BD0C089580E00E94BB10A4
:10291000817008950E94F0112FEF86E791E0215019
:1029200080409040E1F700C000000E94F0110E943A
:102930008514882321F00E9482140E941B1D089593
:102940000E948A140895893289F1F0F4843171F17A
:10295000B0F4873009F077C081E08093240184E1EE
:10296000809323018AE0809322018EE180932101EC
:1029700088E080931E0188E280931D0164C092EE7E
:10298000980F9A30F0F05FC0803509F444C028F405
:102990008F3409F058C08AE03FC0813529F0823574
:1029A00009F051C081E038C08FEF36C08091B1028C
:1029B000882379F11092B1021092B0021092AF0206
:1029C00042C08D518093B102833099F038F4813048
:1029D00069F08230D9F483E291E00DC0853099F03E
:1029E00078F0863099F48DE191E005C084E291E0C1
:1029F00002C082E291E09093B0028093AF0223C0C4
:102A000081E291E0F8CF8EE191E0F5CF1092B10232
:102A10001AC080E0089586EFE091AF02F091B00215
:102A2000309789F02081082E000C990B820F911DA0
:102A30008F3F910519F014F08FEF04C097FF02C08B
:102A4000108201C0808381E00895482F50E0FA0190
:102A50003597EF33F10508F06CC0EE59FF4F0C9439
:102A6000B0250E945F0D60C080918A02817F8E7FB9
:102A700080938A0281E08093B20208950E94170336
:102A800053C080918A02982F9095917090FB80F9A5
:102A900080938A02911148C0897F877F10C08091FE
:102AA0008A0281FB222720F991E0922790FB81F98D
:102AB00080938A029923C1F180918A028160809378
:102AC0008A0232C080918A0282FB222720F991E09B
:102AD000922790FB82F9ECCF80918A0283FB222718
:102AE00020F991E0922790FB83F9E2CF0E9404073E
:102AF0008091D70287FB222720F991E0922790FB53
:102B000087F98093D70210C0895301C08D5121E00D
:102B100030E0A90102C0440F551F8A95E2F7CA01AF
:102B20000E9454070E94040781E0089581E090E02C
:102B3000F7CF80E0089580E008950E949B150895E6
:102B4000CF93C82F8091B202813069F038F0823083
:102B5000C1F58C2F0E94A31481E039C00E94970B0D
:102B6000823289F504C00E94970B823261F48C2F67
:102B70000E949D15811104C08C2F0E9425151FC035
:102B800081E090E01CC08C2F0E949B15811116C023
:102B9000C43189F058F4CB3089F0C031B1F482E00F
:102BA0008093B20288E30E94A31408C0C93219F0CE
:102BB000C83321F00AC01092B20207C081E08170D0
:102BC00006C01092B20280E002C080E0F8CFCF9140
:102BD00008950895FC01680F791F8FEF91E3E617C0
:102BE000F70771F02191822728E030E087FF03C0CA
:102BF000880F892701C0880F21503109B9F7EFCF1D
:102C00000895CF93DF9386319C4709F5EB010E942D
:102C1000970B9D81992371F08A7A91E009F490E0F5
:102C20009093B302811102C089E201C085E30E9442
:102C30008F1B09C08091B302811102C089E201C0DB
:102C400085E30E94A61B0E943E0C80E001C081E04B
:102C5000DF91CF910895CF93DF93FC01DB011596AF
:102C60008C91882309F4DDC09F0130572332310550
:102C700008F0D8C0EF010E94D90C9093D80280933D
:102C8000D702FE01E150F047E232F10520F4EF55A2
:102C9000FF4F0C94B0258091D7028160AAC080912B
:102CA000D8028860B2C08091D7028260A2C08091B1
:102CB000D70220C08091D70288609BC08091D80243
:102CC0001EC08091D8028260A0C08091D70280612E
:102CD00090C08091D70280628CC08091D7028064BE
:102CE00088C00E9404078091D702806882C08091CA
:102CF000D702886084607DC08091D8028260816044
:102D000084C08091D7028E7F74C08091D802877F63
:102D10007CC08091D7028D7F6CC08091D70220C08B
:102D20008091D702877F65C08091D8021EC08091B4
:102D3000D8028D7F6AC08091D7028F7E5AC0809161
:102D4000D7028F7D56C08091D7028F7B52C00E94E0
:102D500004078091D7028F774CC08091D702877F7C
:102D60008B7F47C08091D8028D7F8E7F4EC080912F
:102D7000D70282FB222720F991E0922790FB82F96B
:102D800090FB83F936C08091D802982F909591706E
:102D90008E7F892B90FB81F938C08091D70286FB0A
:102DA000222720F991E0922790FB86F922C00E9409
:102DB00004078091D70287FB222720F991E0922710
:102DC00090FB87F916C081E001C080E00E94620D8F
:102DD0001EC08091D70284FB222720F991E0922720
:102DE00090FB84F906C08091D702982F909590FBB4
:102DF00080F98093D7020BC08091D80283FB2227F1
:102E000020F991E0922790FB83F98093D80280917A
:102E1000D7029091D8020E94DE0C0E94040780E045
:102E200001C081E0DF91CF910895282F35EB230376
:102E3000C001112497FF03C08058910902C0805837
:102E40009F4F892F08958091BA0280FF06C060913C
:102E5000220170E0660F771F26C081FF04C06091D9
:102E6000220184E005C082FF07C06091220188E052
:102E7000689FB001112417C09091B9029923D1F035
:102E800060912101961788F72091220188E0289F00
:102E900090011124929FA001939F500D112470E086
:102EA000CA010E949C256038710540F461157105C6
:102EB00019F406C068E070E0862F08958FE7089542
:102EC00081E008958091BA0280FF08C060911E01E0
:102ED00070E0759567957595679521C081FF06C06F
:102EE00060911E0170E07595679519C082FF04C05E
:102EF00060911E0170E010C09091B802992399F082
:102F000060911D019617A0F780911E01899FC00155
:102F1000112470E00E949C256038710540F4611511
:102F2000710519F406C061E070E0862F08958FE7FF
:102F3000089581E008959091BD0291110CC0909187
:102F4000BE02911108C09091C002911104C09091ED
:102F5000BF02992331F098E09093B90291E09093E9
:102F6000B8028D3C21F40E942317819504C08E3C49
:102F700029F40E9423178093BE0208958F3C21F408
:102F80000E942317819504C0803D29F40E942317D5
:102F90008093BD020895893D19F40E94621705C00F
:102FA0008A3D31F40E94621781958093BF02089593
:102FB0008B3D21F40E946217819504C08C3D29F459
:102FC0000E9462178093C00208959FE2980F983084
:102FD00078F421E030E0A90102C0440F551F9A9512
:102FE000E2F7CA019091BC02892B8093BC0208953C
:102FF0008D3D21F48091BA0281600BC08E3D21F499
:103000008091BA02826005C08F3D29F48091BA0296
:1030100084608093BA0208958D3C39F49091BE0289
:1030200097FF35C01092BE0259C08E3C29F4909192
:10303000BE021916BCF32BC09091BD028F3C29F43F
:1030400097FF25C01092BD0249C0803D19F41916A2
:10305000CCF31DC09091BF02893D29F41916BCF430
:103060001092BF023BC08A3D19F497FF10C0F8CF01
:103070008B3D39F49091C00297FF09C01092C002B5
:103080002DC08C3D21F49091C0021916BCF39FE233
:10309000980F983080F421E030E0A90102C0440F7D
:1030A000551F9A95E2F7CA0180959091BC02892339
:1030B0008093BC0213C08D3D21F48091BA028E7FB3
:1030C0000BC08E3D21F48091BA028D7F05C08F3DEB
:1030D00029F48091BA028B7F8093BA028091BD025D
:1030E000811106C08091BE02811102C01092B90206
:1030F0008091BF02811106C08091C002811102C07F
:103100001092B80208950E94B21C2091BD022111B4
:1031100004C02091BE02222321F09093B702809335
:10312000B6022091BF02211104C02091C0022223C7
:1031300021F09093B5028093B4028BEB92E00E9451
:10314000901A0895EBEBF2E086E0DF011D928A957C
:10315000E9F71092B9021092B8021092BA020895DB
:10316000FC01828181110DC0838181110AC084819B
:10317000811107C091E08581811101C090E0892F04
:1031800001C081E081700895A6E0B0E0EAECF8E1CA
:103190000C94C52586E0EBEBF2E0DE011196019080
:1031A0000D928A95E1F71092BD021092BE02109224
:1031B000BF021092C0028B81811104C08C818823D0
:1031C00009F456C08091B6029091B7020E94CA1CC1
:1031D000AC019091B902992339F02091230130E09C
:1031E0002417350758F044C0209124018AE0289F15
:1031F000900111242417350718F03AC09F3F19F0A9
:103200009F5F9093B9021B81112361F00E942317E5
:10321000111614F09FEF01C091E0989F902D11249A
:103220009093BD021C81112361F00E942317111697
:1032300014F09FEF01C091E0989F902D112490937E
:10324000BE028091BD02882399F01091BE02112325
:1032500079F00E941517811101C081E08093BD02B1
:10326000812F0E941517811101C081E08093BE0259
:103270008D81811104C08E81882309F456C080910C
:10328000B4029091B5020E94CA1CAC019091B802A0
:10329000992339F020911F0130E02417350758F0A9
:1032A00044C0209120018AE0289F90011124241716
:1032B000350718F03AC09F3F19F09F5F9093B8020E
:1032C0001D81112361F00E946217111614F09FEF07
:1032D00001C091E0989F902D11249093BF021E8110
:1032E000112361F00E946217111614F09FEF01C0C4
:1032F00091E0989F902D11249093C0028091BF027D
:10330000882399F01091C002112379F00E941517BB
:10331000811101C081E08093BF02812F0E941517A7
:10332000811101C081E08093C002BE016F5F7F4FB9
:103330008BEB92E00E94D71B811105C08BEB92E0D2
:103340000E94B01881110E94831886E0FE01319618
:10335000ABEBB2E001900D928A95E1F72696E3E09F
:103360000C94E1250F931F93CF93DF93C42FD22F9B
:10337000FC0185818823B1F04093C3020E94B21CF6
:103380009093C2028093C10280E28C0F883008F0D3
:103390004DC0C77081E001C0880FCA95EAF70E944E
:1033A000AD0444C08091C302481330C08091C10273
:1033B0009091C2020E94CA1C883C910538F510E227
:1033C0001D0FCD17B9F080E28C0F883040F4C77024
:1033D00081E001C0880FCA95EAF70E94B404183052
:1033E00010F581E09D2F977001C0880F9A95EAF73C
:1033F0000E94AD04802F0E94A3041830B8F4D77047
:1034000081E001C0880FDA95EAF70AC080E28C0FEC
:10341000883060F4C77081E001C0880FCA95EAF770
:103420000E94B40403C0802F0E94A304DF91CF91B7
:103430001F910F9108950F93FC01E851FC47E7306D
:10344000F10590F5CB01ED53FF4F0C94B02506E24A
:1034500021EE41EE6AE17CE723C007E225EE45EE6E
:103460006BE17CE71DC006E221EE40EE68E17CE7FF
:1034700017C007E225EE44EE69E17CE711C006E2E1
:1034800021EE42EE6CE17CE70BC007E225EE46EE52
:103490006DE17CE705C008E221E045EE6EE17CE7E6
:1034A0000E94B21980E008C0FB018581882319F0D1
:1034B0001092C30201C081E00F9108959093CA0257
:1034C0008093C90208950E947712811103C08091F0
:1034D000C4020895E091C902F091CA02309729F020
:1034E0000190F081E02D0995089580E00895E09124
:1034F000C902F091CA02309721F00280F381E02DD9
:1035000009950895E091C902F091CA02309739F007
:1035100026E0DC012C930480F581E02D09950895C7
:10352000E091C902F091CA02309739F022E0DC0143
:103530002C930680F781E02D09950895A3E0B0E073
:10354000E4EAFAE10C94C6252091C7023091C80242
:1035500028173907A1F09093C8028093C702E09121
:10356000C902F091CA02309751F023E029839B836E
:103570008A830084F185E02DCE010196099523967A
:10358000E2E00C94E225A3E0B0E0E9ECFAE10C946F
:10359000C6252091C5023091C60228173907A1F02F
:1035A0009093C6028093C502E091C902F091CA02CD
:1035B000309751F024E029839B838A830084F1852E
:1035C000E02DCE01019609952396E2E00C94E225C8
:1035D000E0910201F0910301329680912F0188233E
:1035E00059F08091D70287FF07C0E0910001F09168
:1035F000010132969EE101C096E080E0915028F0F2
:1036000021912223D9F38F5FF9CF0895882399F16F
:1036100090912F01992309F19091D70297FF1DC036
:10362000982F9695969596959E3128F5E0910001F4
:10363000F0910101E90FF11D2281422F50E08770C6
:1036400021E030E002C0220F331F8A95E2F72423E5
:10365000352381E0232B91F40EC02091020130919B
:103660000301F9013296285F3F4F9191891729F0A4
:10367000E217F307D1F780E0089581E008959C01F7
:10368000FC0132969FEF80E04191461789F09F3F01
:1036900019F4411101C0982F8F5F8630A9F79F3F21
:1036A00039F0F901E90FF11D97FDFA95628308954C
:1036B00008959C012A5F3F4FFC014281461301C0DF
:1036C0001282019682179307B9F70895262F26953F
:1036D000269526952E3168F4FC01E20FF11D6770E6
:1036E00021E030E001C0220F6A95EAF78281282BA1
:1036F00022830895262F2695269526952E3170F43F
:10370000FC01E20FF11D677021E030E001C0220FE3
:103710006A95EAF720958281282322830895682FED
:1037200080912F01882359F08091D70287FF07C02D
:1037300080910001909101010E94661B0895809183
:103740000201909103010E943F1B0895682F809110
:103750002F01882359F08091D70287FF07C08091FD
:103760000001909101010E947A1B0895809102014D
:10377000909103010E94591B089580912F01882385
:1037800059F08091D70287FF07C0E0910001F091C6
:10379000010132968EE106C0E0910201F091030131
:1037A000329686E0DF011D928A95E9F70895DC01E3
:1037B000FB0111969C9111978181981321C012965B
:1037C0008C911297882319F09281891319C013964E
:1037D0008C911397882319F09381891311C0159642
:1037E0008C911597882319F09581891309C0149637
:1037F0009C91992339F081E02481291304C002C0EF
:1038000081E001C080E08170089508950E94051C48
:10381000089583E08093CB020E94061C08958111D5
:1038200002C081E001C082E08093CB020E94061CAE
:1038300008950E940F1C089581E08093CB020E949E
:10384000061C08950E941C1C089508950E94251CC2
:1038500008950E94261C08950E94251C08950E9428
:10386000251C08950E94251C0895CF930E942F1CAB
:103870000E94F0110E942C1CC0E08C2F0E94BB10F3
:10388000811104C0CF5FCA30C1F701C081E0CF9180
:10389000089585B7806885BF85B7806885BF08951E
:1038A0001F920F920FB60F9211248F939F93AF9395
:1038B000BF938091CC02811113C08091F30290914B
:1038C000F402A091F502B091F6024196A11DB11D3E
:1038D0008093F3029093F402A093F502B093F60262
:1038E000BF91AF919F918F910F900FBE0F901F903E
:1038F00018958091FB02843031F10E947A03109276
:10390000CC0220E488E190E00FB6F894A89580936B
:1039100060000FBE2093600083B7817F846083BF07
:1039200083B7816083BF7894889583B78E7F83BF88
:103930000FB6F894A895809160008861809360002C
:10394000109260000FBE08950E9404070E947F033A
:10395000089582E084BD93E095BD9AEF97BD809372
:103960006E0008952FB7F8948091F3029091F402BD
:10397000A091F502B091F6022FBF08952FB7F894E9
:103980006091F3027091F4028091F5029091F60239
:103990002FBF08959C014FB7F8948091F302909146
:1039A000F402A091F502B091F6024FBF821B930B77
:1039B0000895CF92DF92EF92FF922FB7F894C090C4
:1039C000F302D090F402E090F502F090F6022FBFDF
:1039D000A7019601261B370B480B590BCA01B901E9
:1039E000FF90EF90DF90CF90089578941F920F9200
:1039F0000FB60F9211248F939F93AF93BF93809133
:103A0000F3029091F402A091F502B091F6020196B2
:103A1000A11DB11D8093F3029093F402A093F502CF
:103A2000B093F602BF91AF919F918F910F900FBE0F
:103A30000F901F90189587E797E790930108809360
:103A400000089AE088E10FB6F894A895809360008A
:103A50000FBE90936000FFCF9AE088E10FB6F89414
:103A6000A895809360000FBE90936000FFCF8EE119
:103A7000499B02C08150E1F7499BFECF08955998B8
:103A800080E28A95F1F7599A0895FC012AE02A9577
:103A9000F1F728E090E080E031E040E14A95F1F76D
:103AA000880F499B02C08160932700C0000040E15D
:103AB0004A95F1F7215089F720E12A95F1F729B1CC
:103AC00000C0000030E13A95F1F726952170922769
:103AD0002081920F90830895A1E0B0E0E2E7FDE13C
:103AE0000C94C22519828C017C01E60EF11C0E1586
:103AF0001F0551F00E94371DCE0101960E94451D01
:103B0000F80181938F01F3CF81E09981911180E0D9
:103B10002196E6E00C94DE25519A599A0895519821
:103B2000599AE99AE9E6F0E08081837F80830895DD
:103B3000615091E001C0990F6A95EAF720E031E009
:103B4000992361F0492F482319F0599A232701C07E
:103B5000599840E24A95F1F79695F2CF222311F059
:103B6000599A01C0599880E28A95F1F759980895B9
:103B7000FF920F931F93CF93DF93EC018C01060FFD
:103B8000111DC017D10741F0F9900E943F1D68E058
:103B90008F2D0E94981DF5CFCDB7DEB7E5E00C94D0
:103BA000DF251F920F920FB60F9211240F931F93D0
:103BB0002F933F934F935F936F937F938F939F9335
:103BC000AF93BF93EF93FF93CF93DF931F92CDB744
:103BD000DEB719820E94371DCE0101960E94451D55
:103BE000082F069506950695902F96959570202F8F
:103BF0002570920F292F237096959695920F8770B6
:103C000089135FC0898181115CC0043008F059C0FC
:103C100080E18A95F1F7599A519A82E08A95F1F7F5
:103C200000C0599888E0089F80011124D801AB5F3B
:103C3000BE4F1696ED91FC9117973097A9F06091C1
:103C4000AE017091AF0114962D913C911597260FFE
:103C5000371F11968D919C911297680F791F1396BB
:103C60004C9113978C910995F801EB5FFE4F63819E
:103C7000662351F08091AE019091AF01248135818E
:103C8000820F931F0E94B81D0E943F1D80E18A95FC
:103C9000F1F759985198599A80E18A95F1F7F8010E
:103CA000EB5FFE4F6081662351F08091AE019091F1
:103CB000AF0121813281820F931F0E946C1D0E94EF
:103CC000371D0F90DF91CF91FF91EF91BF91AF9191
:103CD0009F918F917F916F915F914F913F912F9124
:103CE0001F910F910F900FBE0F901F9018950F937B
:103CF0001F93CF93DF93843091050CF06DC0EC01DE
:103D0000F894519A599885E08A95F1F700009C2F14
:103D1000969595702C2F2570920F892F837096950C
:103D2000969523E0CC0FDD1F2A95E1F7980F8E01C1
:103D3000092B0E943F1D84E08A95F1F700C068E0DE
:103D4000802F0E94981D80E18A95F1F75198599A29
:103D5000499902C000C0FCCF87E090E0499B08C0B1
:103D6000019721F4519A599A789436C000C0F6CF41
:103D7000FE01EB5FFE4F6381662381F08091AE010F
:103D80009091AF0124813581820F931F0E946C1D99
:103D9000811104C0519A599A78941FC00E94371D0E
:103DA00080E28A95F1F75998519A80E18A95F1F766
:103DB000CB5FDE4F6881662351F08091AE01909118
:103DC000AF0129813A81820F931F0E94B81D0E9482
:103DD0003F1D789481E001C080E0DF91CF911F9179
:103DE0000F9108958091D50208959B019091FB0257
:103DF0009430F1F48F708093E9008FEF9091E80098
:103E0000815095FD06C095ED9A95F1F7000081115E
:103E1000F5CF8091E80085FF0BC0BA01C90140E0F1
:103E200050E00E94FC208091E8008E778093E800AB
:103E3000089543E050E0BC0182E00E94F51E089521
:103E400046E050E0BC0182E00E94F51E089540E289
:103E500050E0BC0182E00E94F51E0895CF93DF93ED
:103E6000EC0148E050E0BC0181E00E94F51E88E0D2
:103E7000FE01ADECB2E001900D928A95E1F7DF9181
:103E8000CF9108958091FA02811109C00E94872282
:103E90000E94E4228091E20084608093E200089511
:103EA0001092FA0208950E94221C08956091F70270
:103EB00081E0611101C080E00E94091C0895909189
:103EC000FB0281E0943009F080E06091F7020E94EB
:103ED0000F1C089542E061EC81E00E94002242E262
:103EE00061EC82E00E9400229091FB0281E094301C
:103EF00009F080E06091F7020E94191C08958091FA
:103F0000FD02833009F461C030F4813071F08230F9
:103F100009F49BC008958A3009F487C08B3009F4F6
:103F20006CC0893009F0A9C020C08091FC02813AA0
:103F300009F0A3C08091E800877F8093E80080911A
:103F4000000390910103892B21F468E08DEC92E04D
:103F500003C060E080E090E070E00E944121809129
:103F6000E8008B778093E80008958091FC0281320D
:103F700009F083C08091000390910103029708F03B
:103F80007CC08091E800877F8093E8008091E80002
:103F900082FD05C08091FB028111F8CF6EC0209197
:103FA000F3008091F20090E0922B029731F480911F
:103FB000F100813011F0863021F48091F10080937E
:103FC000D5028091E8008B7754C08091FC02813A41
:103FD00009F053C08091000390910103892B09F0EF
:103FE0004CC08091E800877F8093E8008091E800D2
:103FF00080FFFCCF80912F0137C08091FC0281327D
:10400000E1F58091000390910103892BB1F5809136
:10401000E800877F8093E8000E9435228091FE02AD
:1040200080932F010E94040708958091FC02813241
:1040300021F58091E800877F8093E8000E94352277
:104040008091FF028093D60208958091FC02813A0C
:10405000A1F48091E800877F8093E8008091E800D8
:1040600080FFFCCF8091D6028093F1008091E80020
:104070008E778093E8000E943522089584B7877F69
:1040800084BF0FB6F894A8958091600088618093F2
:104090006000109260000FBE90E080E80FB6F894C8
:1040A00080936100909361000FBE0E941C1C0895D4
:1040B0000E9487220E94E422E2EEF0E08081846088
:1040C000808378940E946F25089585E291E00E9494
:1040D0005E1A08958091FB028530A9F48091FB025D
:1040E000853079F40E94791C8091F9028823B1F31C
:1040F0000E94351C882391F30E94E6200E94040749
:10410000EDCF0E94A41C089508959A0140910203E6
:10411000509103030E948D200895492F5527433065
:104120005105C9F060F44130510581F0423051052C
:1041300009F044C08BE390E04AE753E043C04132CA
:104140005105E1F04232510549F138C082E190E079
:1041500045EB53E037C099278130910549F028F0AD
:10416000029761F5ECE4F3E005C0E6E7F3E002C096
:10417000EAE5F3E0849190E0AF0124C06115710598
:1041800041F061307105D1F489E090E045EA53E0F7
:1041900019C089E090E04CE853E014C06115710546
:1041A00041F06130710551F486EB90E047EC53E04B
:1041B00009C084E490E04DE754E004C080E090E062
:1041C00040E050E0F90151834083089580E189BDCA
:1041D00082E189BD09B400FEFDCF8091D8008F7DBA
:1041E0008093D8008091E00082608093E00080910D
:1041F000E00081FDFCCF0895A0E0B0E0E2E0F1E254
:104200000C94C025EC018B017A010E94542281118B
:1042100033C0E114F10439F0F70180819181081B6A
:10422000190BC80FD91FC12CD12C0115110519F17B
:104230008091E80085FD16C08091E8008E7780931C
:10424000E800E114F10449F0F70180819181C80E82
:10425000D91ED182C08285E00FC00E9454228823DB
:1042600021F30AC089918093F10001501109FFEFF9
:10427000CF1ADF0ADACF80E0CDB7DEB7E8E00C94E2
:10428000DC2520910203309103032617370748F0FD
:104290006115710539F42091E8002E772093E8002C
:1042A00001C0B901FC0120E06115710579F180912F
:1042B000FB028823F1F18530F1F18091E80083FD64
:1042C0003CC08091E80082FD2EC08091E80080FF14
:1042D000EBCF2091F3008091F20090E0922B6115DA
:1042E000710551F08830910538F421912093F10047
:1042F000615071090196F3CF21E0089709F020E0A1
:104300008091E8008E778093E800CECF2111CFCF47
:104310000AC08091FB02882361F0853061F08091B2
:10432000E80083FD0AC08091E80082FFF2CF80E0C0
:10433000089582E0089583E0089581E00895209132
:104340000203309103032617370748F06115710502
:1043500039F42091E8002E772093E80001C0B901DC
:10436000FC0120E06115710591F18091FB02882329
:1043700009F440C0853009F43FC08091E80083FD16
:104380003DC08091E80082FD2FC08091E80080FF51
:10439000E9CF2091F3008091F20090E0922B61151B
:1043A000710559F08830910540F424912093F10073
:1043B0003196615071090196F2CF21E0089709F01A
:1043C00020E08091E8008E778093E800CBCF211128
:1043D000CCCF0AC08091FB02882361F0853061F068
:1043E0008091E80083FD0AC08091E80082FFF2CF4F
:1043F00080E0089582E0089583E0089581E00895C3
:10440000982F973068F59093E900981739F07091DC
:10441000EC002091ED005091F00003C0242F762F86
:1044200050E021FD02C09F5FECCF3091EB003E7F5A
:104430003093EB003091ED003D7F3093ED003091F3
:10444000EB0031603093EB007093EC002093ED00B3
:104450005093F0002091EE0027FDE5CF80E0089515
:104460008F708093E90081E008958091FC0287FFBE
:1044700011C08091E80082FD05C08091FB0281118E
:10448000F8CF11C08091E8008B770BC08091FB02C0
:10449000882349F08091E80080FFF8CF8091E80000
:1044A0008E778093E80008952091E4003091E50034
:1044B00095E64091EC00842F817040FF23C08091ED
:1044C000E80080FD1DC08091FB02882399F08530B3
:1044D00099F08091EB0085FD11C04091E40050916E
:1044E000E5002417350729F3915011F09A01E1CF27
:1044F00084E0089582E0089583E0089581E00895BE
:1045000080E008954091E80042FFDDCF08950E94C9
:10451000F6220E94FE22E0EEF0E08081816080833E
:10452000E8EDF0E080818F77808319BCA7EDB0E0E3
:104530008C918E7F8C9380818F7E80831092FA0283
:1045400008950F931F93CF93DF930E94F6220E944A
:10455000FE22C8EDD0E088818F77888388818068CB
:10456000888388818F7D888319BC1092FB0210920A
:10457000F7021092F9021092F80200EE10E0F80132
:1045800080818B7F808388818160888342E060E0C6
:1045900080E00E940022E1EEF0E080818E7F808347
:1045A000E2EEF0E08081816080838081886080839A
:1045B000F80180818E7F8083888180618883DF918C
:1045C000CF911F910F910895E8EDF0E080818F7EEB
:1045D0008083E7EDF0E080818160808384E082BFAA
:1045E00081E08093FA020E94A1220895E8EDF0E0B4
:1045F00080818E7F80831092E20008951092DA000D
:104600001092E10008951F920F920FB60F9211249D
:104610002F933F934F935F936F937F938F939F93CA
:10462000AF93BF93EF93FF938091E10082FF0BC0A4
:104630008091E20082FF07C08091E1008B7F809330
:10464000E1000E946E258091DA0080FF1FC08091FA
:10465000D80080FF1BC08091DA008E7F8093DA0043
:104660008091D90080FF0DC080E189BD82E189BDC4
:1046700009B400FEFDCF81E08093FB020E94421F3F
:1046800005C019BC1092FB020E94501F8091E100EE
:1046900080FF19C08091E20080FF15C08091E20088
:1046A0008E7F8093E2008091E20080618093E2003F
:1046B0008091D80080628093D80019BC85E08093F7
:1046C000FB020E94561F8091E10084FF30C0809160
:1046D000E20084FF2CC080E189BD82E189BD09B47C
:1046E00000FEFDCF8091D8008F7D8093D80080910F
:1046F000E1008F7E8093E1008091E2008F7E8093C5
:10470000E2008091E20081608093E2008091F702F4
:10471000882311F084E007C08091E30087FD02C088
:1047200081E001C083E08093FB020E945F1F8091C3
:10473000E10083FF29C08091E20083FF25C08091C2
:10474000E100877F8093E10082E08093FB0210927A
:10475000F7028091E1008E7F8093E1008091E2007A
:104760008E7F8093E2008091E20080618093E2007E
:1047700042E060E080E00E9400228091F0008860CA
:104780008093F0000E94531FFF91EF91BF91AF9172
:104790009F918F917F916F915F914F913F912F9159
:1047A0000F900FBE0F901F9018951F920F920FB68B
:1047B0000F9211242F933F934F935F936F937F93A7
:1047C0008F939F93AF93BF93CF93DF93EF93FF9319
:1047D000C091E900CF708091EC00D82FD17080FD9E
:1047E000D0E81092E9008091F000877F8093F0007C
:1047F00078940E9419241092E9008091F00088605A
:104800008093F000CD2BCF70C093E900FF91EF9122
:10481000DF91CF91BF91AF919F918F917F916F91D8
:104820005F914F913F912F910F900FBE0F901F906E
:104830001895AAE2B0E0EFE1F4E20C94C525ECEFA4
:10484000F2E08091F100819323E0E430F207C9F7B0
:104850000E947F1F8091E80083FF2EC18091FC029F
:104860009091FD02492F50E04A30510508F024C1D3
:10487000FA01E653FF4F0C94B025803821F08238BE
:1048800009F01AC108C08091F8029091F9029923A9
:1048900089F082600FC0809100038F70873008F02C
:1048A0000BC18093E9008091EB0085FB882780F99C
:1048B0001092E9009091E800977F9093E800809330
:1048C000F1001092F100D1C0282F2D7F09F0F4C023
:1048D000882319F0823061F0EFC08091FE028130B0
:1048E00009F0EAC0933009F080E08093F9022EC00D
:1048F0008091FE0281112AC0809100038F702FEFFA
:10490000280F263008F0D8C08093E9002091EB00F2
:1049100020FF1CC0933021F48091EB00806214C012
:104920009091EB0090619093EB0021E030E0A901C1
:1049300002C0440F551F8A95E2F74093EA00109297
:10494000EA008091EB0088608093EB001092E90010
:104950008091E800877F8093E8000E943522ACC0F8
:104960008111AAC01091FE021F778091E300807828
:10497000812B8093E3008091E800877F8093E8009B
:104980000E9435228091E80080FFFCCF8091E300F7
:1049900080688093E300111102C082E001C083E0CF
:1049A0008093FB0289C08058823008F085C08091D6
:1049B000FE029091FF028C3D53E0950779F583E06C
:1049C0008A838AE289834FB7F894DE01139620E048
:1049D0003EE051E2E32FF0E050935700E49120FFD6
:1049E00003C0E295EF703F5FEF708E2F90E0EA30EA
:1049F00010F0C79601C0C0968D939D932F5F243110
:104A000049F74FBF8091E800877F8093E8006AE212
:104A100070E0CE0101960E94412116C06091000312
:104A200070910103AE014F5F5F4F0E948520BC0172
:104A3000892B09F441C09091E800977F9093E8009A
:104A400089819A810E949F218091E8008B778093D1
:104A5000E80032C0803881F58091E800877F80933C
:104A6000E8008091F7028093F1008091E8008E7752
:104A700072CF811121C08091FE029091FF0299278F
:104A80000297D4F48091E800877F8093E8008091BA
:104A9000FE028093F7020E9435228091F702811175
:104AA00006C08091E30087FD02C081E001C084E080
:104AB0008093FB020E946A1F8091E80083FF0AC076
:104AC0008091E800877F8093E8008091EB0080620E
:104AD0008093EB00AA96E3E00C94E1250895CF9330
:104AE0008091FB028823A1F0C091E900CF709091E2
:104AF000EC00892F817090FD80E8C82B1092E900AE
:104B00008091E80083FD0E941924CF70C093E900D2
:104B1000CF9108950E9487221092FB020895E8ED3C
:104B2000F0E08081806180838AE18A95F1F700C09E
:104B30008091D9008170089597FB072E16F4009498
:104B400007D077FD09D00E94ED2507FC05D03EF483
:104B5000909581959F4F0895709561957F4F089529
:104B6000EE0FFF1F0590F491E02D09942F923F92D4
:104B70004F925F926F927F928F929F92AF92BF926D
:104B8000CF92DF92EF92FF920F931F93CF93DF9319
:104B9000CDB7DEB7CA1BDB0B0FB6F894DEBF0FBE76
:104BA000CDBF09942A88398848885F846E847D84C3
:104BB0008C849B84AA84B984C884DF80EE80FD80C5
:104BC0000C811B81AA81B981CE0FD11D0FB6F8943B
:104BD000DEBF0FBECDBFED010895AA1BBB1B51E187
:104BE00007C0AA1FBB1FA617B70710F0A61BB70B5D
:104BF000881F991F5A95A9F780959095BC01CD0102
:104C00000895FB01DC0104C08D910190801921F40D
:104C100041505040C8F7881B990B0895FB01DC01F7
:104C200002C001900D9241505040D8F70895F99973
:104C3000FECF92BD81BDF89A992780B50895A8E16D
:104C4000B0E042E050E00C945B26DC01A40FB51FFD
:104C50004150504048F0CB01840F951F2E910E9487
:104C6000362641505040D0F70895262FF999FECFAF
:104C700092BD81BDF89A019700B4021639F01FBAAF
:104C800020BD0FB6F894FA9AF99A0FBE08950396CC
:104C9000272F0E9436260E943526252F0E94362671
:104CA000242F0C9436260196272F0E9436260C942A
:104CB0003526DC01CB01FC01F999FECF06C0F2BD1F
:104CC000E1BDF89A319600B40D9241505040B8F7CA
:064CD0000895F894FFCFE7
:104CD6004C026C0201000000010000000000000010
:104CE600050100000004060000000000002808502E
:104CF600011E0A1401F21E2E1F271F201F191F0155
:104D0600E200E900EA00B500B600B700CD00830175
:104D1600CC008A0192019401210223022402250279
:104D2600260227022A02B300B4006F0070009F011A
:104D3600CB019F02A002818283E200E900EA00B56E
:104D460000B600B700CD008301CC008A0192019421
:104D5600012102230224022502260227022A02B387
:104D660000B4006F0070009F01CB019F02A002817A
:104D760082833534C697669490F73133323694027F
:00000001FF
